:10400000600E0120F5630000F1630000F163000021
:10401000F1630000F1630000F163000000000000A4
:10402000000000000000000000000000B14400009B
:10403000F16300000000000041450000A5450000BC
:10404000F1630000F1630000F1630000F163000020
:10405000F1630000F1630000F1630000F163000010
:10406000F1630000F1630000F1630000616F000084
:10407000F1630000F1630000F1630000F1630000F0
:10408000F1630000F1630000F1630000F1630000E0
:10409000F1630000F1630000F1630000F1630000D0
:1040A000F1630000F1630000F1630000F1630000C0
:1040B000F1630000F1630000F1630000F1630000B0
:1040C000F1630000F1630000F1630000F1630000A0
:1040D000F1630000F1630000F1630000F163000090
:1040E000F1630000F1630000000000000000000028
:1040F00000000000B5640000F1630000F1630000FF
:10410000F1630000F1630000F1630000F16300005F
:10411000F1630000F1630000F1630000F16300004F
:10412000F1630000F1630000F1630000F16300003F
:10413000F1630000F1630000F1630000F16300002F
:10414000F1630000F1630000F1630000F16300001F
:10415000F1630000F1630000F1630000F16300000F
:10416000F1630000F1630000F1630000F1630000FF
:10417000F1630000F1630000000000000000000097
:104180001D600000256000002D600000356000000B
:1041900000000000F1630000F1630000F163000023
:1041A000F1630000F1630000F1630000F1630000BF
:1041B000F1630000F1630000F1630000F1630000AF
:1041C000F1630000F1630000F1630000F16300009F
:1041D000F1630000F1630000F1630000F16300008F
:1041E000F1630000F1630000F1630000F16300007F
:1041F000F1630000F1630000F1630000F16300006F
:10420000F1630000F1630000F1630000F16300005E
:10421000F1630000F1630000F1630000F16300004E
:10422000F1630000F1630000F1630000F16300003E
:10423000F1630000F1630000F1630000F16300002E
:10424000F1630000F1630000F1630000F16300001E
:10425000F1630000F1630000F1630000F16300000E
:10426000F1630000044B05481B1A062B02D9044BCE
:1042700003B11847704700BF3B8600003886000036
:104280000000000005490648091A891001EBD171A8
:10429000491002D0034B03B118477047388600001D
:1042A000388600000000000010B5064C237843B9A2
:1042B000FFF7D8FF044B13B10448AFF3008001238C
:1042C000237010BD100000200000000038860000A0
:1042D00008B5084B1BB108490848AFF300800848EF
:1042E000036813B9BDE80840CCE7064B002BF9D0B2
:1042F0009847F7E70000000014000020388600000F
:10430000388600000000000000F1080343604FF011
:10431000FF32C360036100238260036070470023A3
:104320000361704743684B609A688A609A6851607D
:104330009960036808610133036070470A68531C81
:1043400030B501D1036907E000F108035C68256816
:10435000AA4201D32346F9E75A684A6091608B600C
:104360005960036808610133036030BD41688268A9
:1043700003698A60826851605968884208BF5A6040
:10438000002202611A68013A1A601868704700003A
:1043900038B543070446114B1CBF20F0070408340E
:1043A00098470F4B1A6822B903F10C0222F007025A
:1043B0001A60D3F864390A4A1C4440F657118C42FB
:1043C00006D8A34204D21568C2F864491D4400E02F
:1043D0000025044B9847284638BD00BFB57C000037
:1043E0002C000020CD7D000040B14FF0800383F30E
:1043F0001188BFF36F8FBFF34F8FFEE77047000048
:1044000082B0002301930D4B1B68013308D04FF09D
:10441000800383F31188BFF36F8FBFF34F8FFEE7E5
:104420004FF0800383F31188BFF36F8FBFF34F8F7B
:10443000019B002BFCD002B0704700BF00000020A1
:1044400008480068006880F308884FF0000080F397
:10445000148862B661B6BFF34F8FBFF36F8F00DF72
:1044600000BF000008ED00E0DFF80C00016841F437
:10447000700101607047000088ED00E04FF080732C
:1044800040F8043C074B40F80C3C21F001016FF070
:10449000020340F8081C40F8202C40F8243C443823
:1044A000704700BF01440000000000000000000051
:1044B000074B19680868B0E8F04F80F30988BFF32C
:1044C0006F8F4FF0000080F311887047AFF30080CA
:1044D000800D00204FF0800383F31188BFF36F8FAE
:1044E000BFF34F8F0A4A13680133012B13600DD1BC
:1044F000084B1B6813F0FF0F08D04FF0800383F3C5
:104500001188BFF36F8FBFF34F8FFEE7704700BF77
:104510000000002004ED00E0084A136843B94FF0A2
:10452000800383F31188BFF36F8FBFF34F8FFEE7D4
:10453000013B13600BB983F3118870470000002022
:10454000EFF30980BFF36F8F154B1A681EF0100F41
:1045500008BF20ED108A20E9F04F10602DE9090016
:104560004FF0800080F31188BFF34F8FBFF36F8F40
:1045700003F0A4FC4FF0000080F3118809BC196817
:104580000868B0E8F04F1EF0100F08BFB0EC108ABA
:1045900080F30988BFF36F8F704700BFAFF30080CF
:1045A000800D002008B54FF0800383F31188BFF31E
:1045B0006F8FBFF34F8F054B984718B1044B4FF0E7
:1045C00080521A60002383F3118808BDD57C000057
:1045D00004ED00E0054B064900221A600A60054A16
:1045E0000549116007221A60704700BF10E000E023
:1045F00018E000E014E000E0BFD40100394B3A4A73
:1046000013B51968914208D14FF0800383F31188E4
:10461000BFF36F8FBFF34F8FFEE71A68334B9A4299
:1046200008D14FF0800383F31188BFF36F8FBFF37E
:104630004F8FFEE72E4B1A78D2B20192FF221A70EA
:104640001B78DBB28DF803309DF80320294B02F074
:1046500080021A7007225A6000219DF803000006AC
:1046600002F1FF3408D59DF803205200D2B28DF834
:10467000032001212246F0E701B15A605B68042B58
:1046800008D04FF0800383F31188BFF36F8FBFF31F
:104690004F8FFEE7174A1B0203F4E0635360019B50
:1046A000134ADBB21370144B1A6842F460021A60AA
:1046B0001A6842F060421A60104B9847104B002471
:1046C0001C60104B9847104A136843F04043136036
:1046D0000E4B98470E4B98470E4B9847204602B01A
:1046E00010BD00BF00ED00E071C20F4170C20F416C
:1046F00000E400E09409002020ED00E0D545000032
:10470000000000206944000034EF00E04144000054
:10471000BD7E000001440000EFF305830F2B104A1B
:104720000DD910495B5C1178994208D94FF080038C
:1047300083F31188BFF36F8FBFF34F8FFEE70A4BF0
:1047400052681B6803F4E063934208D94FF080037A
:1047500083F31188BFF36F8FBFF34F8FFEE770476E
:1047600094090020F0E300E00CED00E0024A034869
:10477000034B111D184700BF04000020280E002025
:10478000DD740000024A53680342FCD1704700BF49
:104790000028004038B51849184D4B6813F0010F38
:1047A00011D10320A8470B789B0707D50B7803F09E
:1047B000FD0303200B70A8470220A8470E4B0122DF
:1047C0001A700320A8470120A8470B490B7803F073
:1047D000EF030B700320A84700244C708C608C61A1
:1047E0000C634C63CC610C620B7843F002030B70DA
:1047F0000320A847204638BD002800408547000018
:1048000010B5114A114C0023185D03F14801013322
:10481000432B42F82100F7D10D480022D30003F1C9
:10482000824303F5604330F812101962094911F808
:10483000221083F825100132C943C9B2202A83F817
:104840002410EBD1002010BD00E000419083000057
:10485000D4830000148400007823584302300323DB
:10486000B0FBF3F04FF47A73584370470000000038
:104870000139FDD8704700BF014B5879704700BF20
:104880009C09002010B50446044B9847A46B044BC8
:104890009847B4FA84F0400910BD00BFD544000029
:1048A0001945000070B51546026C866B044632B996
:1048B000056825BB4068174B9847656026E0164B96
:1048C0005DB980689847A268236C13446268A3604E
:1048D000934216D32368A36013E0C0689847236C03
:1048E000E26821685B421A448A42E2603EBF626825
:1048F0009B18E360022D06D13EB1013E03E0104655
:1049000004E0284602E0002000E030460136A663BD
:1049100070BD00BFED800000C1810000034610B4EF
:104920001A6C084662B1D9685C681144A142D9602A
:1049300024BF1968D960D9685DF8044B024B184749
:104940005DF8044B704700BFC18100004FF0800349
:1049500083F31188BFF36F8FBFF34F8FFEE7000023
:1049600073B5846C01900A460CB9174B9847A16B3C
:10497000E36B994208D34FF0800383F31188BFF3B0
:104980006F8FBFF34F8FFEE7A16B8B4218D994F85E
:1049900045500E4B01A9204698476DB26B1C064648
:1049A00009D1636A6BB104F12400094B98470028D0
:1049B00018BF012605E001356DB284F8455000E0CE
:1049C0000026304602B070BD4D490000A5480000E9
:1049D000A97F00002DE9F04704461F4EDFF88480D0
:1049E000DFF88490B04794F8455037461B4E6DB2BF
:1049F000002D10DDA36C2BB100212046C84738B133
:104A0000C04705E0636A33B104F12400B047F6E71C
:104A1000013D6DB2ECE7FF2384F84530104EDFF81E
:104A20003C80DFF84090B047B84794F8445004F118
:104A300010076DB2002D08DD236933B13846C04739
:104A400000B1C847013D6DB2F4E7FF2384F844305C
:104A50003346BDE8F0471847D5440000A97F000061
:104A600019450000BD8000006149000038B50D46C1
:104A7000044608B9184B9847184B9847206CE36BCD
:104A80002268A2604343D1181B1A13446160E3609B
:104A90000021FF23A16384F8443084F845307DB9B8
:104AA0002369A3B104F110000D4B984778B10D4B69
:104AB0004FF080521A60BFF34F8FBFF36F8F06E045
:104AC00004F11000084DA84704F12400A847074B43
:104AD0009847012038BD00BF4D490000D544000073
:104AE000A97F000004ED00E0094300001945000023
:104AF000F8B50D461746064640B94FF0800383F3DC
:104B00001188BFF36F8FBFF34F8FFEE748435430D8
:104B10000A4B9847044678B10DB9206002E000F1D5
:104B200054030360064BE663256401212046984741
:104B3000002384F85070A3642046F8BD9143000020
:104B40006D4A00002DE9F04F87B08A4603921E4659
:104B5000044640B94FF0800383F31188BFF36F8F91
:104B6000BFF34F8FFEE751B9036C43B14FF08003A1
:104B700083F31188BFF36F8FBFF34F8FFEE7022ED1
:104B80000BD1E36B012B08D04FF0800383F3118826
:104B9000BFF36F8FBFF34F8FFEE7454B984710B9B8
:104BA000039B0BB178E00023DFF83491DFF814B1F8
:104BB000C8460193C847A16BE26B3E4F914202D3B6
:104BC000022E019B1DD13C4B324651462046984750
:104BD000A36C23B131462046384B984705E0636A01
:104BE0001BB104F12400364B984738B1354B4FF0D8
:104BF00080521A60BFF34F8FBFF36F8FB847012009
:104C000053E0039D15B9B84728464EE013B904A8F0
:104C10002D4B9847B8472D4B2D4D9847C04794F8DA
:104C20004430FF2B04BF002384F8443094F845300F
:104C3000FF2B04BF002384F84530B84703A904A81C
:104C4000244B254F984710BBC047A26BE36B194913
:104C5000029201938847019B029A9A4213D10399C9
:104C60001E4B04F1100098472046B847A84708B1EA
:104C700001239EE74FF08053CBF80030BFF34F8FF6
:104C8000BFF36F8FF4E72046B847A847F0E7204608
:104C9000B847A847002008E04FF0800383F311884D
:104CA000BFF36F8FBFF34F8FFEE707B0BDE8F08F04
:104CB000CD80000019450000A548000061490000B2
:104CC000A97F000004ED00E025800000B57C000015
:104CD000CD7D000039800000D5490000297F00000B
:104CE000D54400002DE9F843884691461F46044606
:104CF00040B94FF0800383F31188BFF36F8FBFF388
:104D00004F8FFEE751B9036C43B14FF0800383F33B
:104D10001188BFF36F8FBFF34F8FFEE7022F0BD1C8
:104D2000E36B012B08D04FF0800383F31188BFF3AE
:104D30006F8FBFF34F8FFEE71D4B9847EFF3118640
:104D40004FF0800383F31188BFF36F8FBFF34F8F52
:104D5000A26BE36B9A4201D3022F24D194F8455001
:104D6000144B6DB23A464146204698476B1C14D10D
:104D7000A36C5BB1394620460F4B984788B1B9F117
:104D8000000F0ED00120C9F800000DE0636A43B1A6
:104D900004F12400094B9847F0E701356DB284F81F
:104DA0004550012000E0002086F31188BDE8F8831B
:104DB00019470000A548000061490000A97F0000D4
:104DC0002DE9F04F85B089460192044640B94FF075
:104DD000800383F31188BFF36F8FBFF34F8FFEE71C
:104DE00051B9036C43B14FF0800383F31188BFF3D3
:104DF0006F8FBFF34F8FFEE73D4B984710B9019E71
:104E00000EB169E00026DFF81881DFF8F4A0C34690
:104E1000C047A56B374FBDB1374B49462046013DD2
:104E20009847A563236963B104F11000334B984799
:104E300038B1334B4FF080521A60BFF34F8FBFF33E
:104E40006F8FB847012050E0019D15B9B84728463B
:104E50004BE016B902A82B4B9847B8472A4B2B4E6C
:104E60002B4D9847D84794F84430FF2B04BF0023BC
:104E700084F8443094F84530FF2B04BF002384F8B5
:104E80004530B84701A902A8224B234F9847D0B913
:104E90002046B84798B10199204B04F12400984767
:104EA0002046B047A84708B10126B1E74FF080532C
:104EB000CAF80030BFF34F8FBFF36F8FF4E720467F
:104EC000B047A847F0E72046B047A8472046B84774
:104ED0000028E9D0002008E04FF0800383F3118818
:104EE000BFF36F8FBFF34F8FFEE705B0BDE8F08FC4
:104EF000CD800000194500001D490000A97F000079
:104F000004ED00E025800000B57C0000D5490000DC
:104F1000CD7D00003980000085480000297F000019
:104F2000D544000070B50446104B0D461646984710
:104F300094F84430FF2B04BF002384F8443094F8E5
:104F40004530FF2B04BF002384F84530084B9847B9
:104F5000A36B2BB93246294604F12400054B984730
:104F60002046054BBDE87040184700BFD5440000FF
:104F700019450000657F0000D549000038B50D4691
:104F8000044618B1081C18BF0120FFE740220B4956
:104F90000B4B00F0010098472046294640F8045F7B
:104FA000084B9847002807DB4FF40043A382064BC9
:104FB0002361064BE360002038BD00BF94840000ED
:104FC0003D650000F16600004D50000015500000E6
:104FD00030B50C4685B0054618B1081C18BF012035
:104FE000FFE7B3220849094B00F001009847236806
:104FF000019363680293A368039301A9281D044BDE
:10500000984705B030BD00BF948400003D650000A6
:10501000516800007FB50446003018BF01200E46DD
:1050200015460749074BA32298470023029301A97D
:10503000A4F10C00044B01960395984704B070BD91
:10504000948400003D650000D14F00007FB5044608
:10505000003018BF01200E4615460749074B87222E
:1050600098470023019301A9A4F10C00044B029678
:105070000395984704B070BD948400003D6500001E
:10508000D14F00000148024B184700BFC009002063
:105090008D790000004B184785500000F0B5056879
:1050A0000DB90E4B16E0D1F808E02C4600276668D3
:1050B000A3689642334488BF01339B1A734504D2D8
:1050C0002368274623B11C46F1E7AC42E9D03C46B1
:1050D000034B2046BDE8F040184700BFFD640000C8
:1050E000296500002DE9F0470669037E4469013611
:1050F000DA070546066109D4037E9B0706D400F152
:105100001407DFF84880DFF848901AE02B7E43F060
:1051100002032B76BDE8F0876368A268F31A934216
:1051200011D33846C047237C012B04D16660324638
:1051300021463846C847E368D5F814A0204698476A
:105140005446002CE8D1BDE8F08700BF316500006F
:105150009D50000038B50D46044618B1081C18BF14
:105160000120FFE73B220749074B00F00100984769
:1051700029462046054B98470020054B20612360B7
:1051800038BD00BFB08400003D650000F96E00002E
:10519000E550000070B50D46044618B1081C18BF54
:1051A0000120FFE70549064B00F001003122984736
:1051B00029462046034BBDE870401847C7840000CD
:1051C0003D6500004166000000207047084B93F8E1
:1051D0002020D20706D51A6902F41062B2F5106FCA
:1051E000F9D170471A6902F48072002AFAD0704728
:1051F0000010004010B109B10230C0B2024B1422BD
:1052000002FB003010447047000A002030B4C47C18
:10521000837C04F0070203F00F03012A4FEA4311D5
:1052200003F108020AD0520102F1824201F18241E7
:105230001023D37181F8083130BC704765060BD557
:105240005B016FF3861403F18243C474802483F8F6
:105250000441402483F80541C37C6FF3C303C37446
:10526000094B52015C18002502F1824201F1824192
:1052700084F8D25084F8E2506F24D47181F8084148
:105280009B68807C30BC1847000A0020202303FA6A
:1052900001F1837C03F00F035B0103F18243C9B288
:1052A00083F80811024B82681B69807C0121184732
:1052B000000A00200246807CFF280AD0D37C13F02D
:1052C000400F06D06FF38613D374024B92681B69AC
:1052D00018477047000A002077B4837C154CFF2BD9
:1052E0002488ADF8044021D0C47C64061ED503F0A8
:1052F0000F0303F10804650105F1824511B1802611
:105300002E7101E040266E7102AD0D4464015B0117
:1053100004F1824403F1824315F8041CE17183F81F
:105320000811054B114603B070BC184703B070BCA0
:10533000704700BFE4840000B5520000F7B5364B5B
:10534000877C1B88ADF8043007F00F0707F10803CE
:105350005D01324C05F182457A0114442E7811B179
:10536000C6F3021601E006F0070604EB0114022E54
:10537000A57A90F813E002AEEDB20E4415D115F007
:10538000010F12D0A57A5B0102F182426FF3000592
:1053900003F18243A572003116F8044CDC7118BF8A
:1053A000012182F8084104221EE005F0020505F003
:1053B000FF0CF5B1A57A5B0103F182436FF3410560
:1053C000A57216F8044CDC7102F182420EF007035C
:1053D000012B82F808411DD1C37C5A061AD5DB097E
:1053E000994217D0002219460D4B03B0BDE8F0409A
:1053F00018470C4801EB470100EB01115B0103F179
:10540000824302F1824281F8D2C016F8041CD9719D
:1054100082F8081103B0F0BDE6840000C80A00203D
:10542000D9520000000A00202DE9F041094C0A4F32
:1054300004F1B405FF2603212046B8470021A674D5
:10544000E1741434AC42F6D160220448044BBDE848
:10545000F0411847140A0020B5520000C80A002085
:10546000F58200002DE9F047867C06F00F06044621
:105470008A46750129B14B4B2B445B69C3F30D0E72
:1054800000E08E46238A94F8139040F2FF32934254
:105490001ABF03F1FF3318B2184609F00709BAF131
:1054A000000F05D0720102F18242022382F8073117
:1054B000A1686768E37C7144B942A1602CD27F1A6D
:1054C00013F0200FBFB22368DFF8E4800ED0228AE9
:1054D000E068974228BF17463A461944324B98472E
:1054E00008EB0503E268C3F8D82009E0194408EB8B
:1054F0000503B7F5005F28BF4FF40057C3F8D81075
:1055000008EB0503D8335A6867F30D025A605A68EE
:105510006FF39B325A6031E0DA060DD56FF3041356
:10552000E374224B2B445A686FF30D025A605A6899
:105530006FF39B325A6021E0B9F1010F05F182450A
:105540000CBF4B234A2385F80831228A00EA0E0358
:105550009A420DD1E37CA168A07C6FF38613E374BB
:10556000134BDB689847D8B9E37C43F04003E374FE
:10557000204600210F4BBDE8F0471847BAF1000F55
:1055800008D1B9F1010F05F182450CBF4E234A2322
:1055900085F80931760106F18246802386F80531C7
:1055A000BDE8F087C80A0020C1810000D80A0020A9
:1055B000000A0020B55200002DE9F74F867C06F066
:1055C0000F0604468846750141B1644B2B445A6866
:1055D0005B68C2F38D39C3F30D0A01E089468A4640
:1055E000278A40F2FF339F42E37C1CBF07F1FF375D
:1055F000BFB203F007030AEA070B0193B8F1000FEB
:1056000005D0730103F18243012283F80721E37C73
:1056100098060CD5626852B1A0682368E168121A36
:1056200092B25A45184428BF5A464D4B9847626873
:10563000CAB9E37CD9065BD562F304134948E16833
:10564000DBB2284443F02003E37400F1C803C0F840
:10565000C8105968208A60F39B315960596862F319
:105660000D0159605FE0B8F1000F09D0238A5B4556
:1056700006D9E37C6FF30413E374A36853443CE05E
:10568000A16849448A42A16038D9E07C354BB4F81E
:1056900010E0521A10F0200F92B207D0591972453B
:1056A000E068C1F8C80028BF724613E0724505D90A
:1056B000B2F5005F07D822EA070206E005D240F003
:1056C0002000E07401E04FF40052206801445819B2
:1056D000C0F8C8102B44D3F8CC1062F39B31C3F848
:1056E000CC10D3F8CC206FF30D02C3F8CC201AE015
:1056F000B8F1000FBAD1A3684B44A360019B05F138
:105700008245012B0CBF2D23252385F808311EB9B6
:10571000144BE268C3F8C820134B0021204603B0A5
:10572000BDE8F04F1847B8F1000F0DD1019B012BD8
:1057300004BF0C4B5B1905F182450ABF83F8E28078
:1057400025232D2385F80931760106F18246402371
:1057500086F8043103B0BDE8F08F00BFC80A00200E
:10576000C1810000000A0020B55200002DE9F04779
:105770004FF082431E8CB6B2002E71D19A8B188BDB
:1057800080B2104000F0040292B232B104229A8337
:105790006B4BBDE8F0471B68184700F4007189B2F5
:1057A00009B340F201219983998270211983644BD6
:1057B000B3F8D01001F00F01032906D0B3F8F010B0
:1057C00001F00F0103290AD1012203EB421200204C
:1057D000B2F8D010A2F8D000C1F30A1100E01146CF
:1057E0005B68032039E000F08004A4B22CB1802271
:1057F0009A83534B05205B682FE010F070050CD0A6
:1058000070229A839A8240F201221A834D4B984764
:105810004B4B21465B6802201FE000F0080292B269
:105820007AB1082283F800519A8370229A8240F25A
:1058300001221A83444B9847414B29465B6801205B
:105840000BE0C1070CD540F20121998399827021A8
:1058500019833B4B5B6811460420BDE8F0471847AD
:105860003A4CDFF8FC803A4F0025A4F11409A27CE1
:10587000FF2A5ED002F00F02012101FA02F3334247
:1058800057D05301520103F1824302F1824293F84F
:10589000070192F8093103404BD0142202FB059214
:1058A00092F8272002F0470088420BD1DA063ED456
:1058B00003F0400202F0FF010AB101461EE09B0620
:1058C00037D51BE022F07F0000F0FF0C80B15806B6
:1058D00014D4180726D4980702D520461D4B18E08B
:1058E00002F00702012A24D15A071ED5002119E02F
:1058F00003F0200000F0FF0E18B161462046164B61
:1059000007E0580701D571460CE0D80703D5134BC3
:10591000204698470DE002F00702012A09D11A0734
:1059200003D501212046B84703E0DB0601D5204618
:10593000C0470135092D04F1140498D1BDE8F08762
:10594000000A0020CD51000029540000140A002054
:105950003D530000655400008D520000B955000011
:105960000D520000B0F5007F0FD8B0F5807F0ED843
:1059700080280ED840280ED820280ED810280ED8FF
:10598000082894BF00200120704707207047062098
:10599000704705207047042070470320704702209D
:1059A0007047000008B54FF082439A78D0070FD4B3
:1059B0001A46917889074FF08243FAD11A789207F4
:1059C00009D44FF0824301221A709A789207FCD1D1
:1059D0004FF082420CE01A7802F0FD021A709A78B9
:1059E0009007FCD14FF0824293789907FCD4E8E706
:1059F0009378DB07FCD4214B214A1A605A609A60E5
:105A0000DA601A611F4B98471F4B1A68C2F34411A2
:105A1000C2F3822312F01F0203D01F2A08BF0922FB
:105A200000E0092219B11F2908BF192100E019213E
:105A30001BB1072B08BF062300E006231B0341EA26
:105A4000821203F4E04313434FF082429BB213856A
:105A5000D37843F00303D370D37843F00C03D370AF
:105A600004231370907810F003004FF08243F9D1B3
:105A7000064A5A6201221A8108BD00BF000A0020AE
:105A8000C95100002954000084008000C80A002089
:105A90004FF0824340F08000987270472DE9F04744
:105AA0000D4620F07F0100F00F0401F0FF070031E8
:105AB00018BF01218146DFF8ACA020469046D047B0
:105AC000022C064605F003053ED8837CFF2B3FD110
:105AD00075B9B7FA87F149092046D047837CFF2B77
:105AE00036D11F4A0C2303FB04235B6883B933E0E0
:105AF0003FB11B4A0C2303FB04239A688AB1DB895C
:105B00000DE0174A0C2303FB04235B684BB101E053
:105B1000002FEED1124A0C2303FB04239B8943453B
:105B20001ADB0F4A86F812900C2303FB042401357C
:105B30006268A368F574002F08BF1346F360A6F8E7
:105B400010800020BDE8F0876FF01100BDE8F087FD
:105B50006FF01300BDE8F0876FF01200BDE8F0872A
:105B6000E4840000F5510000F8B500F00F05C70906
:105B7000044639462846194B9847022D06462BD82D
:105B8000837CFF2B28D0164B032239469847F37CA1
:105B900003F00703012B06D1640104F182440023C2
:105BA00084F8003114E0230609D56D0105F1824522
:105BB00095F8003103F08F0385F8003108E06401A7
:105BC00004F1824494F8003103F0F80384F80031C2
:105BD0000023F374FF23B374F8BD00BFF551000038
:105BE000D952000020F07F012DE9F84F00F00F0896
:105BF00001F0FF09003118BF012140465A4B984778
:105C00004FEA481404F18244054694F80001B8F1C3
:105C1000020FC0B200F2A080AB7CFF2B00F09C8092
:105C2000EB7C524E03F0070206F1C8074FEA481A10
:105C3000012A574450D110F0770940F09180112289
:105C400084F80021B5F810B0DFF824815846C04729
:105C5000DFF820E14FEA8B32000702EA0E0E00F077
:105C6000E0404EEA00007860B5F810B05846C047F2
:105C7000000700F0E040CBF30D020AEB06010243FF
:105C80007A614027802284F8057184F8042181F824
:105C9000D29081F8E290AA7CEB6802F00F025001EA
:105CA000064400F18242C6F8C830D6F8CC102D8ADE
:105CB00065F39B31C6F8CC10D6F8CC1069F30D0112
:105CC000C6F8CC101046B02182F8041182F8057194
:105CD000102280F809213CE0B9F1000F1CD010F02F
:105CE00070093DD11B0103F07003184384F80001D3
:105CF000B5F810801E4D4046A847000700F0E04070
:105D0000C8F30D0303430AEB06017B61802384F88B
:105D1000043181F8E2901CE010F0070920D103F073
:105D20000703034384F80031B5F81080104D404656
:105D3000A847104D4FEA883300071D4000F0E040AF
:105D40000AEB060128434023786084F8053181F886
:105D5000D2904846BDE8F88F6FF01100BDE8F88F8B
:105D60006FF01300BDE8F88FF5510000000A002025
:105D70006559000000C0FF0F70B500F00F06C409A0
:105D80000D4630462146344B9847022E61D8012DEE
:105D900018D1837C03F00F035A011021A14002F1B6
:105DA0008242C9B282F805115B01202203F18243CD
:105DB00002FA04F4E4B283F80941C37C43F0080317
:105DC000C37433E0A5BB827C02F00F02530103F1E0
:105DD0008243102193F80651A1400D4226D0C9B24A
:105DE00083F8041152012021A14002F18242CDB278
:105DF00082F8085193F807210A4207D0012202FADB
:105E000004F4E4B283F8075183F80441C27C02F041
:105E10000701012907D193F8063113F0300305D1AA
:105E200063F3C30201E06FF3C302C274002070BDCC
:105E3000837C03F00F035B0103F1824303F580735E
:105E400010209B7900FA04F41C4214BF01200020AA
:105E500070BD6FF0110070BDF551000030B500F05D
:105E60000F0313485A01841885586068022BC0F349
:105E70000D0015D8A1B102F1824393F80021112A37
:105E800011D193F8074104F0100404F0FF026CB143
:105E90002A680A606A684A60102283F8072130BDC8
:105EA0006FF0110030BD6FF0120030BD104630BDF4
:105EB000C80A00202DE9F347077A3E4B07F00F068A
:105EC00027F07F0707F0FF05003718BF012781463D
:105ED000394630469847028AD9F8041040F2FF3319
:105EE0009A421ABF02F1FF339BB21346022E0446B8
:105EF00003EA010856D8D9F80060B6F1005F09D36B
:105F00002D4B8819984205D816F0030602D16DB9B9
:105F1000914204D2E368002B41D0012606E0B8F19B
:105F2000000F02D0E368002B3CD02E46E37C1B0719
:105F30003BD4224B01A89847E37C214A03F040015F
:105F400001F0FF0A19B101A8904701202EE043F0AB
:105F50004003E37401A89047D9F800302360D9F8D2
:105F600004306360E37CC4F808A067F3C71366F3EA
:105F70004513E37499F8093013B1B8FA88F35B0953
:105F8000E27C63F30412E2742DB10E4B0021204633
:105F9000984700200AE0294620460B4BF8E76FF0AF
:105FA000120003E06FF0110000E0022002B0BDE833
:105FB000F08700BFF5510000FF1F0420457400006A
:105FC0005374000065540000B9550000064B0029C9
:105FD00008BF1946012802D1044B5960704708B91F
:105FE000024B1960704700BFC9510000000A002031
:105FF000084B002908BF194610B9074B9960704734
:10600000012802D1044BD9607047022804BF024B1B
:1060100019617047C9510000000A0020004B184761
:106020006D570000004B18476D570000004B184794
:106030006D570000004B18476D5700002DE9F041E7
:106040000C4C0D4B9847256885B9271D3846DFF85D
:10605000348004F11806C0473046C0472A460C2158
:106060000220064BE762266398472060044BBDE898
:10607000F0411847E80B0020D5440000F14A000029
:106080001945000009430000914208B541600061D4
:1060900007D8D21A83699A420ED2084B011D186B99
:1060A00006E09A4201D2994206D2044B011DD86AF9
:1060B000034B9847002008BD012008BDE80B0020D5
:1060C0003D4300000E4B13B598470E4B1A6842B97A
:1060D0004FF0800383F31188BFF36F8FBFF34F8FAF
:1060E0000DE034330193022300934022002306493C
:1060F0000648074CA0470028EAD002B010BDFEE7D2
:106100003D600000E80B00200C850000FD610000F0
:10611000957A000030B5154685B01A46034640B959
:106120004FF0800383F31188BFF36F8FBFF34F8F5E
:10613000FEE70D4C2068A8B1052901910295039353
:106140000CDC0A4B0A4D98470023022808BF089A26
:10615000206818BF1A4601A9A84703E0002301A937
:10616000044CA04705B030BDE80B0020CD800000F6
:10617000454B0000E54C00002DE9F7431B4D1C4E3C
:106180002F46EA6A194B116851B3D368DC68D3F81B
:10619000008004F104094846B047636A20469847E6
:1061A000E369012BEDD1A3694344984506D26360AE
:1061B00024614946F86A0F4B9847E2E700232046DE
:1061C0000093424619460C4CA0470028D9D14FF005
:1061D000800383F31188BFF36F8FBFF34F8FFEE708
:1061E000196BD9621A6303B0BDE8F083E80B002095
:1061F0006D4300003D430000156100002DE9F04FA4
:10620000664FDFF8C09189B03D46FA6AD2F8008047
:10621000B8F1000F02D0D268166800E04646604A26
:10622000604C9047A047AA6B03949042824603D2E9
:106230005D4A9047012400E00024C5F838A0DFF84B
:1062400088B1002C47D1B8F1000F2DD0B24531D321
:10625000D847FB6ADB68D3F80CB0544B0BF1040051
:106260009847DBF81C30012B1AD1DBF81810524686
:10627000334631445846DFF840A1D04780B10094FE
:106280002346214632465846494CA04740B94FF074
:10629000800383F31188BFF36F8FBFF34F8FFEE747
:1062A000DBF82430584649E03B6B1A68B2FA82F2B8
:1062B000520900E02246CAEB060128683D4B984788
:1062C000D84790B94FF08053C9F80030BFF34F8FD3
:1062D000BFF36F8F09E0D84707E0A169069B364EF0
:1062E0005A4619442046B04750BB344E2868002215
:1062F00005A9B047002888D0059B002BF6DB079C3A
:10630000636913B1201D294B9847039B9847AB6BDA
:106310009842834601D2244B9847059AC5F838B075
:10632000092AE3D80123934013F4047A23D113F00C
:10633000C70FD2D19B06D9D5214B20469847D4E729
:10634000636A20469847E369012BCED1A26906997A
:10635000CDF800A00A44204653465146144CA047AD
:106360000028C2D14FF0800383F31188BFF36F8FF1
:10637000BFF34F8FFEE70699A16141B94FF080034B
:1063800083F31188BFF36F8FBFF34F8FFEE75B4638
:106390005A4659442046084CA047A6E7E80B00207F
:1063A000B57C0000C97C0000796100006D430000ED
:1063B00015610000254F000089600000C14D0000FC
:1063C000E943000004ED00E0CD7D0000054B10B571
:1063D0001C68054B9847054B01462046BDE8104018
:1063E000184700BF240C00205948000071480000E5
:1063F000FEE7000008B5154A154B9A4202D0043A50
:10640000144903E0144B154A002106E08B42F9D2EF
:1064100052F8040F43F8040BF8E7934202D243F812
:10642000041BFAE70E4A0F4B22F07F029A60D3F862
:10643000882042F47002C3F88820BFF34F8FBFF367
:106440006F8F094B9847094B9847FEE73886000045
:10645000000000200C000020100000205C0E002036
:106460000040000000ED00E0718100009174000028
:1064700010B50A4A0A4C13889BB21380094B9847FF
:10648000094B9847094B98472820A047084B984745
:10649000234640F6D770BDE8104018470040004141
:1064A00015690000D16E000043650000A966000078
:1064B0004565000007B50B4A9378DBB20193019B59
:1064C000990702D5084B1B6833B9019BDB0705D53B
:1064D000054B5B6813B1034A5068984703B05DF8F9
:1064E00004FB00BF00000241FC0D0020006818B151
:1064F0008842FBD1012070477047000038B5074B38
:106500000D460446984780F00100054B05493922A5
:10651000C0B2984723682B60256038BDED64000049
:106520003D6500001485000003680B600160704742
:1065300003680BB11A6802601846704700B900BEC4
:10654000704770473B4B1A6A22F00F0242F0040278
:106550001A62596843F6FD720A40002AF9D15A6856
:1065600012F00402FBD1344B1A77344A9A6293F842
:106570002C10314A01F0100101F0FF000029F6D182
:1065800082F8200092F82C302B4913F0040FF9D137
:1065900002230B7791F82C20274B9207FAD45A6AE2
:1065A0005A6293F82C2012F0080F234AF9D1802365
:1065B00082F8203092F82C101F4B4807FAD43B2267
:1065C0005A63DA6B12F0060F1B4AFAD12023936349
:1065D000022382F83030D16B174B8907FBD493F834
:1065E0002020D20706D51A6902F41062B2F5106FA6
:1065F000F9D102E01A69D005FCD50F4B1A6CD1070E
:1066000002D41A6C9207F9D50A494B68094A002B43
:10661000FBD1136A23F00F0343F0070313625168A1
:1066200043F6FD730B40002BF9D1024A53685B0718
:10663000FCD47047001C0040001000400000010422
:1066400038B50C46054618B1081C18BF0120FFE7F5
:10665000134B1449D82200F0010098472C6094F89D
:106660002F3043F0010384F82F3094F82F0010F0FE
:106670000100FAD10E2384F82E300F2384F829303C
:10668000A38E9BB26FEA53236FEA4323A386E38E64
:106690009BB26FEA93236FEA8323E38638BD00BF82
:1066A0003D65000032850000014B01225A717047A0
:1066B00000080040C3690B42FCD1704770B50B4D18
:1066C00006460FCD88B06C460FC495E80F0084E8ED
:1066D0000F0000205DF82030B34201D1C0B203E0CA
:1066E00001300828F6D1002008B070BD4C850000AC
:1066F0002DE9F041514BDFF85481064608460C461F
:10670000984720B9002E00F089804D4D03E0002EFF
:1067100000F08A800025201C18BF012040F63612A8
:106720004849C047002D00F08480E369464A13F0D1
:10673000010F18D1032120462F68904723689B073B
:1067400007F01C0709D5236823F002030321204624
:106750002360904702212046904747F001072760B9
:1067600003212046904701212046904734602B6842
:10677000354F03F01C03082B23D140F61412314986
:106780000120C0472B6823F4817323F001032360A9
:1067900003212046B8476B6823F4083323F41073B1
:1067A00043F4003343F41073636017212046B84765
:1067B000AB6863626B7B84F83030E369002BFCD1FB
:1067C0001DE04FF410621F490120C0472B6823F4DD
:1067D000817323F00103236003212046B8476B68CF
:1067E00023F4383323F4107343F400336360172128
:1067F0002046B8472B7B23736B7B84F830306B6863
:1068000013F0070F0CBF012302233371AB7BEA7B2C
:1068100043EA0223F3800020BDE8F08140F63612FF
:106820000849074DC04780E740F636120549304613
:10683000C0476FF00C00BDE8F08100BFBD660000EE
:106840008485000095850000B56600003D65000068
:106850002DE9F843046890F804800E684D682A4BCF
:106860000746201C40F69A2218BF01208946274976
:106870009847E26912F0070232D10321244B2046E7
:106880009847236899072FD51046217EC9B24B0738
:106890000BD5A36A3DB1B8F1010F2B7085BF1B0A60
:1068A0006B7001350235013203E0824201D3CB0720
:1068B0001ED4090607D54FF6FF7363838023237622
:1068C0006FF0120005E0D9F808309842DDD39A4203
:1068D000DBD3237E9B07FCD003232376BDE8F8831C
:1068E0006FF00300BDE8F8836FF01300BDE8F88394
:1068F000FB8836B1B8F1010F33788CBF36F8023B14
:1069000001360130A362D4E73D65000095850000A3
:10691000B5660000C10702D4020713D509E00F4B8A
:106920000F4A1A62596843F6FD720A40002AF9D1EB
:10693000F2E70A4B0B4ADA62596843F6FD720A40E5
:10694000002AF9D1830608D5044B074A5A635968CF
:1069500043F6FD720A40002AF9D17047001C00403E
:1069600007010100050101000601180010B5884269
:1069700007D20378012B04D94478944202D01844FA
:10698000F5E7002010BD000038B515460C4B02227B
:106990000C46984778B938BD0378012B0DD9437858
:1069A000022B0AD14379AB4208D0C278837803EB3B
:1069B000022310FA83F0A042EED3002038BD00BFBE
:1069C0006D690000F8B50A4F0D4616460024A8422E
:1069D0000BD203222946B84740B10378012B04D9D2
:1069E000B44203D018440134F1E70020F8BD00BFE1
:1069F0006D6900000A4970B50246002300F00F06D9
:106A00005D014C1958B26478944208D06D5C0DB9A0
:106A1000A64204D00133042BF2D14FF0FF3070BDF9
:106A2000280C00200020704770B5094B04460D4625
:106A30009847084B03EB40108378032B05D18369FB
:106A400029462046BDE870401847002070BD00BFB1
:106A5000F5690000280C00202DE9F0433A4B3B4E2D
:106A600085B080460D46914698474401002D3ED1A1
:106A70003719315DFD70002936D1BB787878032B4A
:106A800004F10802FB6929D13244043201213C7B24
:106A9000984724F07F04E4B27B7860B10522BA7095
:106AA0000222FA700CB1184601E043F08000012187
:106AB000274B984744E00422BA700190029014B921
:106AC00043F0800301E003F00F038DF80C30012345
:106AD0008DF80D3001A81F4B984731E03244043245
:106AE00098470223BB702BE00123BB7022E0012DED
:106AF00006EB04030AD1315D0222DA7021B99A70E3
:106B00004046134B984715E0052208E0022D08D1B6
:106B10000422DA70325D0AB99D7011E001229A7088
:106B200008E0032D09BF002206229A70052218BF33
:106B30009A70DA7034444A46E369E17840469847EF
:106B400005B0BDE8F08300BFF5690000280C002007
:106B5000795D0000B55E00002DE9F0471B4BDFF8C2
:106B600078901B4C05469847460109EB060808F14A
:106B70000C0841462846174B9847C0B2082865F0D4
:106B80007F0705D001212846A0470121F8B217E070
:106B90004E4400212846FFB2A0474FF001090021D2
:106BA0003846A04786F802907369414628469847C0
:106BB00050B905234946B3702846A0474946384690
:106BC0002346BDE8F0471847BDE8F087F5690000A7
:106BD000795D00005D5E0000280C002010B5104BB0
:106BE000984700281BDB802200210E4B0E48984757
:106BF0000D4B0E4A03F18001FF2058705A619A61D3
:106C0000DA6120338B42F8D1094C0A490020A047B1
:106C100009490120A04702200849A047002010BDD3
:106C2000A5590000F5820000280C0020256A00000C
:106C3000F15F0000596B0000296A0000596A0000EA
:106C4000004B1847CD5F0000004B1847915A0000D9
:106C5000F8B5104C06460D461746A047002813DA33
:106C6000FF20A047041E12DB3A46294630460A4B55
:106C7000984700280DDB094B60011A1805F0030541
:106C80001D5456700020F8BD6FF01300F8BD6FF072
:106C90001400F8BDF56900009D5A0000280C002082
:106CA00000210246014B0846184700BF516C000006
:106CB00038B5074B05469847041E07DB2846054BA9
:106CC0009847054800EB4410FF23437038BD00BFD0
:106CD000F5690000695B0000280C002038B50C4BFA
:106CE00005469847002810DB40010A4C235C044409
:106CF000002B0CBF02230123A3702846064B9847A4
:106D0000002804DA0023A37038BD6FF0110038BDED
:106D1000F5690000280C0020E55B00002DE9F04F2C
:106D200090F808A0394B804687B050469847B0F19C
:106D3000000998F80940D8F804705FDBDFF8DCB090
:106D4000334B4FEA49190BEB090602A89847B37871
:106D50008DF807309DF807002E4BC5B2012D0CD1E0
:106D60000322B27002A898471BF80930BBB1231C5C
:106D70004FEADA1018BF01232CE002A898479DF8CB
:106D80000730DBB2052B3CD0062B05D0002B0CBF07
:106D90006FF01200012035E06FF00F0032E0F27C5E
:106DA000B37C03EB02239AB222B90423B3701746D3
:106DB0002B460EE0317B974221F07F0128BF17461A
:106DC00001F0FF0329B1BA4294BF002301232846F2
:106DD00000E01846D8F8001098F8082003910497AE
:106DE00010B142F0800201E002F00F028DF8153080
:106DF00003A8094B8DF81420984703E06FF01100A9
:106E000000E0022007B0BDE8F08F00BFF569000088
:106E10004574000053740000B55E0000280C00208B
:106E20002DE9F04105460C46D9B9134B9847071E8A
:106E30001EDB02212846114EB047D8B12146284614
:106E4000B047002816DB0E4800EB47100321012352
:106E50008370C170C3692246284698472046BDE822
:106E6000F0810129054B18BF0221BDE8F041184708
:106E70006FF01100BDE8F081F5690000795D000058
:106E8000280C002038B50F4B14460D4698470E4A83
:106E9000002C18BF2246002813DB012D08D002D396
:106EA000022D0AD038BD094B03EB4010426138BDBA
:106EB000064B03EB4010826138BD044B03EB4010DE
:106EC000C26138BDF5690000256A0000280C002069
:106ED000064B42F286029A8200229A75DA75DA69C6
:106EE00002F47C52DA6105221A74704700140040E3
:106EF00003690B42FCD1704770B504460D46003063
:106F000018BF0120114B1249012630229847114A1F
:106F1000E56028462E8048F2030190473146E0683C
:106F20009047E06848F28003038048F203019047ED
:106F3000E0682023036260219047E3684FF4807289
:106F40005A81054B00201C6070BD00BF3D650000EC
:106F5000B0850000F16E0000A80C002000207047F2
:106F6000074B10B51C68E3689B89DB0507D52368D0
:106F70000BB120469847E3684FF480729A8110BDA8
:106F8000A80C002030B54A1CC4B204F01F03C0F3A3
:106F900047100CD103EBC01000F1824000F5004017
:106FA00090F8403003F0FE0380F8403030BDC0015F
:106FB00000F1824000F50040C5185B0895F84020BC
:106FC00002F0FE0242F00102034485F8402093F8EB
:106FD000302014F0010F19BF02F00F0242EA011134
:106FE00001F00F0102F0F00214BFC9B2114383F89F
:106FF000301030BD01224309914200F01F0002FA17
:1070000000F010D008D3022928D1DB0103F182431C
:1070100003F50043986018E0DB0103F1824303F5B8
:107020000043586011E0DB0103F1824303F50043A4
:1070300082B2586042F08042000C42F4003240F0CC
:1070400040409A6240F4003006E082B242F0804252
:10705000000C9A6240F04040986270474622024914
:10706000024B0020184700BFC58500003D650000A9
:1070700001EBC01101F1824101F5004191F840306E
:1070800003F0FB0381F8403070470000054B4022BD
:10709000C3F89020044A536943F480635361034B5F
:1070A000184700BF001C0040000800402574000085
:1070B000034A936943F080039361024B184700BF72
:1070C00000080040D574000070B5104E104D114CF2
:1070D0001023736102210420A8470F490420A04710
:1070E0002023736102210520A8470C490520A047F1
:1070F00001210620A84706210020094B9847234676
:1071000008490620BDE87040184700BF00800041D4
:10711000F56F0000856F0000030004000300050008
:107120007170000003000600064B4022C3F89C204B
:107130004322C3F88C20044A536943F480535361BB
:10714000704700BF001C00400008004010B5054B10
:107150009847054B054906489847064BBDE810403F
:10716000184700BF297100007D4F0000003000402B
:10717000100E0020C97000002DE9F047274E284F5F
:10718000284D294C4FF4006902212B20B847C6F83E
:1071900094900B210120A84724492B20A0470221CD
:1071A0000820B8474FF48073736108210020A84776
:1071B0004FF008110820A04702210920B8474FF4DA
:1071C0000073736109210020A84719490920A047CD
:1071D0004FF4806802210A20B847C6F814800A21BB
:1071E0000020A84713490A20A04702210B20B847D6
:1071F000C6F814900B210020A8470F490B20A04788
:1072000002212A20B847C6F894800A210120A84705
:1072100023460A492A20BDE8F0471847008000416C
:10722000F56F000071700000856F000008002B00F2
:107230000800090008000A0008000B0008002A00E6
:10724000054A136943F400431361044B4022C3F819
:107250003421C3F88C20704700080040001C004017
:1072600010B5054B9847054B05484FF08A419847A4
:10727000044BBDE8104018474172000095510000D2
:10728000280E0020797100002DE9F04102210F4FF6
:107290000F4E104D104C1820B8474FF0807373619B
:1072A00018210020A8470D491820A04702211920C5
:1072B000B8474FF00073736119210020A847234697
:1072C00007491920BDE8F041184700BFF56F0000DD
:1072D0000080004171700000856F000007001800F9
:1072E00007001900074B4022C3F8A820A3F5A053BC
:1072F0001A6942F480621A619A6942F001029A6145
:10730000704700BF001C004010B5044B9847044B69
:107310009847044BBDE81040184700BFE5720000D5
:10732000DD6B00008972000070B5264B264C274D9E
:1073300098470123C4F8943002212020A84794F8EC
:10734000C030022603F0FE0384F8C0303146C4F892
:1073500094602120A84794F8C13003F0FE0384F81C
:10736000C1300423C4F8943031462220A84794F851
:10737000C23003F0FE0384F8C230082331462320D4
:10738000C4F89430A84794F8C33003F0FE0384F89F
:10739000C3300F4B98470F4B98470F4A536943F43C
:1073A000007353610D4B98470D490E4B02460E4832
:1073B00098470E4B98470E4B98470E4BBDE87040D0
:1073C000184700BF7164000000800041F56F0000A5
:1073D0008D700000B1700000000800405D6F00007B
:1073E0000024004055510000400E00204D71000067
:1073F0006172000009730000094B30B45D6801211F
:1074000000228C18640809D1854203D11B682BB176
:1074100030BC18472CBFFF210122F2E730BC704777
:10742000AC0C0020044B054800214FF0FF3283E8EC
:107430000600034B184700BFAC0C0020F973000096
:1074400095470000EFF31083036072B6BFF35F8FC0
:107450007047BFF35F8F036883F3108870470000A5
:107460000226084D80B53746074BC5F894709847FB
:10747000064C4FF47A70A047C5F898604FF47A70C4
:10748000A047F1E70080004179480000CD6300008B
:1074900037B50A4B0A4D9847002401238DE81800A0
:1074A000084909482346C822A847084B0222C3F8C6
:1074B0009820074B9847204603B030BDF574000074
:1074C000957A0000E18500006174000000800041B1
:1074D000357C0000004B18470148000010B5044BF4
:1074E00004249C76FF241C719860D9605A6310BDF7
:1074F000B40C002010B5044B9847044B9847044B3C
:10750000BDE81040184700BF2973000095500000E7
:107510006D470000054B10B51C6934B16368204607
:107520000022012198472468F7E710BDF00C0020E5
:10753000064B70B5DC6805460E4634B1636813B17E
:107540003146284698472468F7E770BDF00C0020C4
:10755000F8B50C4B9C6805460E4617466CB163683F
:107560000BB92468FAE73A4631462846984730B1C5
:107570000A30F6D04FF0FF30F8BD2046F8BD0120AC
:10758000F8BD00BFF00C0020044B10B55C6824B1BE
:10759000636803B198472468F9E710BDF00C002038
:1075A00010B514460A4631B1012922D12146124BA9
:1075B000002098471DE02378DBB96378052B0AD0BB
:1075C000092B16D10D4B6288DA766288002A14BF27
:1075D0000421032109E06088094BC0B29847638801
:1075E000002B064B14BF0321022199760120054B85
:1075F0009847002010BD00BF51750000F00C00201E
:10760000496C00003175000070B50E4B0E4D002422
:107610009847022620460D4BAE76EC766C7798475D
:107620000B4B287F0B4D9847214620460A4AA84716
:1076300020463146094AA8472046094BBDE870401C
:10764000184700BF15750000F00C0020B16C000059
:10765000A16C0000856E00009D760000A175000001
:10766000DD6C000010B1012802D07047014B1847B3
:10767000014B184731750000097600001FB58DF8E1
:107680000C008DF80D3001A8034B01910292984730
:1076900005B05DF804FB00BF1D6D00002DE9F74348
:1076A0009D4B002205460C469847431C00F066811E
:1076B000012800F06481217811F0E00303D0802BD1
:1076C00000F0B3805AE16378013B0A2B00F2568147
:1076D000DFE813F048005401520054014400540103
:1076E000540154010B00540162006288D2B212B9F5
:1076F0008A4B984732E08A4E336893E80300894BFF
:107700009847002800F03A818378C178864F03EBD0
:10771000012110FA81F104220191B8470DF1080806
:10772000FF2348F8080D009AC2B192F802909945DB
:1077300009D0346944B16368424600212046984725
:1077400010B12468F6E7994600980199037804225D
:1077500018440090B8474B460090E4E7002201230C
:107760001146AEE0022940F00981E688002E40F083
:107770000581A088314608E0022940F0FF80E688B4
:10778000002E40F0FB80A0880121684BC0B29847D2
:10779000012332463146BDE0614D66882B68EA7EA2
:1077A000A78893E803005F4B9847002800F0E68025
:1077B0000090C17883785C4C03EB012110FA81F1D1
:1077C00001910422A047002800F0D8808378BB42B2
:1077D00006D0009801990378184400900422F1E73C
:1077E000C378B342F5D10DF108082C6948F8080DAB
:1077F000002C00F0C3800121636842462046984770
:10780000014608B12468F3E763684246204698477A
:10781000002840F0B38026B16A7F0123BB401343A8
:107820006B7700231A46194698E063780A2B00F21A
:10783000A580DFE803F054A3A3A3A3A306A34DA34D
:10784000810063881A0A022A12D0032A22D0012A50
:1078500040F09480324BE4881B68122C93E80300BC
:10786000314B28BF122498470146002827D185E0D4
:107870002B4AE4881068167F5A1C03C8D2B2294BE1
:1078800098470146002879D0C278837803EB02221A
:1078900092B20BE0224AE4881068167F03C8DAB27D
:1078A000234B98470146002868D00278944206D9B5
:1078B000013E26420CBF01230023144600E00023B2
:1078C000224628461B4CA047B0FA80F0400956E0FB
:1078D00013494B69CA7E1A700023012219E001F096
:1078E0001F01012902D9022903D047E00023009398
:1078F00008E0A0880D4BC0B2984700283EDB00F09E
:10790000010000900649BDF800204B691A80002351
:1079100002224969284622E05175000015750000D1
:10792000F00C0020896900006D690000216E0000E4
:10793000C56900007D7600001249A2884B7F134183
:1079400013F001030E460ED14A69137049690122F2
:1079500004E07369187071690023012218460A4C0B
:10796000A04701200BE00D6945B16B68224602215A
:10797000284698470028ECDA2D68F5E7002003B088
:10798000BDE8F083F00C00207D76000038B5054698
:10799000003018BF012040F255320B490B4B98477D
:1079A0000B4B984700280EDB0A4C0B4B2022002182
:1079B0002046984765610949094C0020A0470120ED
:1079C0000849A047002038BDEB8500003D65000058
:1079D000DD6B0000F00C0020F582000089750000CE
:1079E000416C0000657600000649074B4FF080525D
:1079F00008680128FCD91A60BFF34F8FBFF36F8F5F
:107A0000F6E700BF100D002004ED00E0064B5A6EB3
:107A1000126812B94FF0FF3203E05A6ED268D26892
:107A200052689A66704700BF100D00202DE9F041A2
:107A3000144D154BEE6E0446286F04300F469847E0
:107A4000631C2B4606D12FB1296F104B043105F171
:107A500074000AE034441B6F0A4D5C60A6420C4B74
:107A600006D9D5F88800296F0431BDE8F0411847E0
:107A7000686E296F04319847AB6E9C4238BFAC6684
:107A8000BDE8F081100D00206D430000254300008B
:107A90003D4300002DE9F84F950080465A4C28469A
:107AA0000F469946A0470646002800F0A9805420BA
:107AB000A047044680B12A460663544BA5213046B0
:107AC0009847A5F1040A256BAA447B1E2AF0070AF1
:107AD00004F13302073705E030464D4B98478FE0FD
:107AE0009F4206D013F8011F02F8011F19780029E0
:107AF000F6D10A9D474E042D28BF04254FF0000BF8
:107B0000271DE5626564384684F83BB0C4F848B088
:107B1000B047C5F1050504F11800B047C4F84CB0F2
:107B20003D4B2461A561646284F850B04A464146E9
:107B3000504698470B9B206003B11C60374D384B73
:107B40009847D5F8A0300133C5F8A0302E6F16BB8A
:107B50002C67D5F8A030012B26D1DFF8D4A0DFF8B0
:107B6000BC80DFF8CC90A8191436D047642EF6D12B
:107B700008F1A40A504608F1B806C8473046C8477D
:107B800008F18C00C84708F17400C847C8F864A021
:107B9000C8F8886008E0D5F8CC302BB92B6FDA6ACA
:107BA000E36A9A4298BF2C67D5F8D030D5F8D42034
:107BB0000133C5F8D030E363E36A934288BF174AC4
:107BC0004FF0140088BFC2F8D43000FB0350394690
:107BD000144B9847144B9847D5F8CC306BB10F4BEA
:107BE0001B6FDA6AE36A9A4207D2104B4FF0805259
:107BF0001A60BFF34F8FBFF36F8F0120BDE8F88F7E
:107C00004FF0FF30BDE8F88F91430000F58200008F
:107C1000E94300001F4300007D440000100D0020D8
:107C2000D5440000254300001945000004ED00E0A4
:107C30000943000073B5194C19491A481A4E04F14A
:107C4000DC030025019300952B464022B047012814
:107C500016D1164B9847012812D14FF0800383F3B9
:107C60001188BFF36F8FBFF34F8F4FF0FF33A366C1
:107C70000F4BC4F8CC00E56602B0BDE87040184771
:107C8000013008D14FF0800383F31188BFF36F8F69
:107C9000BFF34F8FFEE702B070BD00BF100D002094
:107CA00001860000E9790000957A0000C5600000B7
:107CB000FD450000034AD2F8D8300133C2F8D8306D
:107CC000704700BF100D0020014BD86E704700BFF9
:107CD000100D00202DE9F84F384BD3F8D8201C4662
:107CE000002A3FD1DE6E0136DE66C6B95B6E1B68C8
:107CF00043B14FF0800383F31188BFF36F8FBFF35D
:107D00004F8FFEE7636ED4F888206266C4F888302F
:107D1000D4F8E0300133C4F8E030294B9847A36E23
:107D20009E424FF0000514D3DFF89080DFF8949066
:107D3000DFF894B0636E214A1B6813B94FF0FF332C
:107D400006E0D8F86430DB68DF687B689E4210D2BA
:107D50009366236FDA6A14235343E358022B28BF38
:107D6000012522E0D3F8E4300133C4F8E4300025E3
:107D70001BE007F1040A5046C847BB6A13B107F17C
:107D80001800C847FB6AD4F8D4201420934200FBA3
:107D90000340514688BFC8F8D430D847236FFA6AE9
:107DA000DB6A9A4228BF0125C4E7D4F8E830002BEB
:107DB00018BF01252846BDE8F88F00BF100D002030
:107DC0000D7A00006D430000254300002DE9F843C3
:107DD000324CD4F8D83043B94FF0800383F3118884
:107DE000BFF36F8FBFF34F8FFEE72D4B9847D4F84B
:107DF000D830013BC4F8D830D4F8D8500DB10024A5
:107E000046E0D4F8A030002BF9D0DFF8A880DFF8E6
:107E1000A8902746D4F88C30EBB1D7F89830DD68BD
:107E20002E1D05F11800C0473046C047EB6AD7F851
:107E3000D4201420934200FB0340314688BFC7F88A
:107E4000D430C847236FEA6ADB6A9A4224BF012311
:107E5000C7F8E830DEE70DB1124B9847D4F8E4508C
:107E60004DB1114E0127B04708B1C4F8E870013D8B
:107E7000F9D1C4F8E450D4F8E830002BBFD00B4B54
:107E80004FF080521A60BFF34F8FBFF36F8F012402
:107E9000074B98472046BDE8F88300BF100D00202F
:107EA000D54400000D7A0000D57C000004ED00E010
:107EB000194500006D43000025430000194AD2F81F
:107EC000D81030B5134619B10123C2F8E83030BDDF
:107ED000C2F8E810D2F8D410142505FB01F2981866
:107EE0009C585CB941B94FF0800383F31188BFF30C
:107EF0006F8FBFF34F8FFEE70139EEE74468094DFE
:107F00006468446008322A44944204BF6268426054
:107F1000142202FB01325268D2681A67C3F8D410E7
:107F200030BD00BF100D002010B50C4640B94FF019
:107F3000800383F31188BFF36F8FBFF34F8FFEE78A
:107F4000054B196F054B1831984720460121044B0A
:107F5000BDE81040184700BF100D00203D43000051
:107F60002D7A000070B50D46144640B94FF08003DD
:107F700083F31188BFF36F8FBFF34F8FFEE7074B7B
:107F8000196F074B18319847002C21460CBF284623
:107F90004FF0FF30034BBDE870401847100D002034
:107FA000254300002D7A0000C3682DE9F041DD680B
:107FB00045B94FF0800383F31188BFF36F8FBFF390
:107FC0004F8FFEE705F11807134CDFF85480134E6E
:107FD0003846C047D4F8D83073B92F1D3846C0474B
:107FE000EB6AD4F8D4201420934288BFC4F8D4306C
:107FF000394600FB034002E0394604F18C00B047EB
:10800000236FEA6ADB6A9A4283BF034B0120C3F8FD
:10801000E8000020BDE8F081100D0020254300009D
:108020006D430000034BD3F8E020DB6E0260436039
:10803000704700BF100D002070B50C46054640B9D2
:108040004FF0800383F31188BFF36F8FBFF34F8F1F
:10805000FEE741B94FF0800383F31188BFF36F8FC0
:10806000BFF34F8FFEE7114B9847236810486968AC
:10807000C26E5E1C12D0D0F8E0002E68864201D09D
:108080008A420DD2521A9A4205D29B1A2360284680
:10809000084B984702E00023236001E0002400E041
:1080A0000124054B9847204670BD00BFD544000011
:1080B000100D00202580000019450000024B012210
:1080C000C3F8E820704700BF100D0020064BD3F81E
:1080D000CC2032B1D3F8D830002B0CBF02200020C6
:1080E00070470120704700BF100D002070B5044696
:1080F00008B9002070BD1B4D2B6F984208D04FF07F
:10810000800383F31188BFF36F8FBFF34F8FFEE7B8
:10811000836C43B94FF0800383F31188BFF36F8FF3
:10812000BFF34F8FFEE7C16A426C013B914283640B
:10813000DFD0002BDDD1061D30460B4B9847636C1A
:10814000E362C3F10502A261D5F8D4201420934262
:1081500000FB035088BFC5F8D4303146034B984725
:10816000012070BD100D00206D430000254300006C
:1081700070B50F4E0F4D761BB61018BF002405D0FA
:10818000013455F8043B9847A642F9D10A4E0B4DED
:10819000761B00F041FAB61018BF002406D0013457
:1081A00055F8043B9847A642F9D170BD70BD00BF99
:1081B0002486000024860000288600002486000013
:1081C000844641EA000313F003036DD1403A41D3E2
:1081D00051F8043B40F8043B51F8043B40F8043BA1
:1081E00051F8043B40F8043B51F8043B40F8043B91
:1081F00051F8043B40F8043B51F8043B40F8043B81
:1082000051F8043B40F8043B51F8043B40F8043B70
:1082100051F8043B40F8043B51F8043B40F8043B60
:1082200051F8043B40F8043B51F8043B40F8043B50
:1082300051F8043B40F8043B51F8043B40F8043B40
:1082400051F8043B40F8043B51F8043B40F8043B30
:10825000403ABDD2303211D351F8043B40F8043BD0
:1082600051F8043B40F8043B51F8043B40F8043B10
:1082700051F8043B40F8043B103AEDD20C3205D3E0
:1082800051F8043B40F8043B043AF9D2043208D0D8
:10829000D2071CBF11F8013B00F8013B01D30B884A
:1082A00003806046704700BF082A13D38B078DD028
:1082B00010F003038AD0C3F10403D21ADB071CBFFA
:1082C00011F8013B00F8013B80D331F8023B20F864
:1082D000023B7BE7043AD9D3013A11F8013B00F89D
:1082E000013BF9D20B7803704B7843708B78837025
:1082F0006046704770B4840746D0541E002A41D0AF
:10830000CDB2034602E0621EE4B3144603F8015BFB
:108310009A07F8D1032C2ED9CDB245EA05250F2CAA
:1083200045EA054519D903F110022646103E0F2EE5
:1083300042F8105C42F80C5C42F8085C42F8045CBD
:1083400002F11002F2D8A4F1100222F00F0204F0A0
:108350000F041032032C13440DD91E462246043A52
:10836000032A46F8045BFAD8221F22F003020432E3
:10837000134404F003042CB1C9B21C4403F8011BDC
:10838000A342FBD170BC704714460346C2E700BF4E
:1083900000000000000000000000000000000000DD
:1083A00000000000000000000000000000000000CD
:1083B00000000000000000000000000000000000BD
:1083C00000000000000000000000000000000000AD
:1083D000000000000000000000000000000000009D
:1083E000000000000000000000000000000000008D
:1083F000000000000000000000000000000000007D
:10840000000000000000000000000000000000006C
:10841000000000000000000000000000000000005C
:10842000000000000000000000000000000000004C
:10843000000000000000000000000000000000003C
:10844000000000000000000000000000000000002C
:10845000000000000000000000000000000000001C
:10846000000000000000000000000000000000000C
:1084700000000000000000000000000000000000FC
:1084800000000000000000000000000000000000EC
:10849000000000002E2E2F68616C2F7372632F680E
:1084A000616C5F7370695F6D5F73796E632E6300DB
:1084B0002E2E2F68616C2F7372632F68616C5F744E
:1084C000696D65722E63002E2E2F68616C2F73729A
:1084D000632F68616C5F6D63695F73796E632E6390
:1084E00000000000254A0408A80B0020000000003E
:1084F00040000000680B0020000000004000000069
:10850000280B00200000000040000000546D722085
:10851000537663002E2E2F68616C2F7574696C730F
:108520002F7372632F7574696C735F6C6973742E2B
:1085300063002E2E2F68706C2F736468632F687031
:108540006C5F736468632E630000000000300040BD
:108550000034004000200141004001410000004380
:108560000004004300080043000C0043000000002A
:1085700000000000000000000000000000000000FB
:10858000000000000C0020000000020000000000BD
:10859000FE00FF01002E2E2F68706C2F7365726332
:1085A0006F6D2F68706C5F736572636F6D2E630003
:1085B0002E2E2F68706C2F7274632F68706C5F7230
:1085C00074632E63002E2E2F68706C2F706F727480
:1085D0002F68706C5F6770696F5F626173652E688A
:1085E00000426C696E6B5461736B002E2E2F757395
:1085F000622F6465766963652F75736264632E63A9
:108600000049444C4500092563092575092575096C
:1086100025750D0A00000000F8B500BFF8BC08BCC5
:108620009E467047D1420000F8B500BFF8BC08BCB8
:088630009E467047A9420000BC
:0C863800AAAAAAAAFFFF0100FFFF000091
:0400000300004000B9
:00000001FF
